{
  "contractName": "Crowdfunding",
  "abi": [
    {
      "constant": true,
      "inputs": [],
      "name": "requiredAmmount",
      "outputs": [
        {
          "name": "",
          "type": "uint256"
        }
      ],
      "payable": false,
      "stateMutability": "view",
      "type": "function"
    },
    {
      "constant": true,
      "inputs": [
        {
          "name": "",
          "type": "address"
        }
      ],
      "name": "useraccount",
      "outputs": [
        {
          "name": "coins",
          "type": "uint256"
        },
        {
          "name": "donation",
          "type": "uint256"
        }
      ],
      "payable": false,
      "stateMutability": "view",
      "type": "function"
    },
    {
      "constant": true,
      "inputs": [],
      "name": "coins",
      "outputs": [
        {
          "name": "",
          "type": "uint256"
        }
      ],
      "payable": false,
      "stateMutability": "view",
      "type": "function"
    },
    {
      "constant": true,
      "inputs": [
        {
          "name": "",
          "type": "uint256"
        }
      ],
      "name": "users",
      "outputs": [
        {
          "name": "",
          "type": "address"
        }
      ],
      "payable": false,
      "stateMutability": "view",
      "type": "function"
    },
    {
      "constant": true,
      "inputs": [],
      "name": "donation",
      "outputs": [
        {
          "name": "",
          "type": "uint256"
        }
      ],
      "payable": false,
      "stateMutability": "view",
      "type": "function"
    },
    {
      "constant": true,
      "inputs": [],
      "name": "balance",
      "outputs": [
        {
          "name": "",
          "type": "uint256"
        }
      ],
      "payable": false,
      "stateMutability": "view",
      "type": "function"
    },
    {
      "inputs": [],
      "payable": false,
      "stateMutability": "nonpayable",
      "type": "constructor"
    },
    {
      "payable": false,
      "stateMutability": "nonpayable",
      "type": "fallback"
    },
    {
      "anonymous": false,
      "inputs": [
        {
          "indexed": false,
          "name": "log",
          "type": "string"
        }
      ],
      "name": "logging",
      "type": "event"
    },
    {
      "anonymous": false,
      "inputs": [
        {
          "indexed": false,
          "name": "num",
          "type": "uint256"
        }
      ],
      "name": "loggingtst",
      "type": "event"
    },
    {
      "anonymous": false,
      "inputs": [
        {
          "indexed": false,
          "name": "add",
          "type": "address"
        }
      ],
      "name": "loggingts",
      "type": "event"
    },
    {
      "anonymous": false,
      "inputs": [
        {
          "indexed": false,
          "name": "created",
          "type": "string"
        }
      ],
      "name": "contractCreated",
      "type": "event"
    },
    {
      "anonymous": false,
      "inputs": [
        {
          "indexed": false,
          "name": "newBal",
          "type": "string"
        }
      ],
      "name": "balanceIncreased",
      "type": "event"
    },
    {
      "anonymous": false,
      "inputs": [
        {
          "indexed": false,
          "name": "coinCalc",
          "type": "string"
        }
      ],
      "name": "coinsCalculated",
      "type": "event"
    },
    {
      "anonymous": false,
      "inputs": [
        {
          "indexed": false,
          "name": "paidProfits",
          "type": "string"
        }
      ],
      "name": "profitsPaid",
      "type": "event"
    },
    {
      "constant": false,
      "inputs": [
        {
          "name": "ramount",
          "type": "uint256"
        }
      ],
      "name": "setRequiredAmount",
      "outputs": [],
      "payable": false,
      "stateMutability": "nonpayable",
      "type": "function"
    },
    {
      "constant": false,
      "inputs": [
        {
          "name": "_address",
          "type": "address"
        },
        {
          "name": "_coins",
          "type": "uint256"
        },
        {
          "name": "_donation",
          "type": "uint256"
        }
      ],
      "name": "setUser",
      "outputs": [],
      "payable": false,
      "stateMutability": "nonpayable",
      "type": "function"
    },
    {
      "constant": true,
      "inputs": [],
      "name": "getUsers",
      "outputs": [
        {
          "name": "",
          "type": "address[]"
        }
      ],
      "payable": false,
      "stateMutability": "view",
      "type": "function"
    },
    {
      "constant": true,
      "inputs": [
        {
          "name": "_address",
          "type": "address"
        }
      ],
      "name": "getUser",
      "outputs": [
        {
          "name": "",
          "type": "uint256"
        },
        {
          "name": "",
          "type": "uint256"
        }
      ],
      "payable": false,
      "stateMutability": "view",
      "type": "function"
    },
    {
      "constant": true,
      "inputs": [],
      "name": "getBalance",
      "outputs": [
        {
          "name": "",
          "type": "uint256"
        }
      ],
      "payable": false,
      "stateMutability": "view",
      "type": "function"
    },
    {
      "constant": false,
      "inputs": [
        {
          "name": "_balance",
          "type": "uint256"
        }
      ],
      "name": "setBalance",
      "outputs": [],
      "payable": false,
      "stateMutability": "nonpayable",
      "type": "function"
    },
    {
      "constant": true,
      "inputs": [],
      "name": "getCmpBal",
      "outputs": [
        {
          "name": "",
          "type": "uint256"
        }
      ],
      "payable": false,
      "stateMutability": "view",
      "type": "function"
    },
    {
      "constant": true,
      "inputs": [],
      "name": "getCmpAddress",
      "outputs": [
        {
          "name": "",
          "type": "address"
        }
      ],
      "payable": false,
      "stateMutability": "view",
      "type": "function"
    },
    {
      "constant": false,
      "inputs": [],
      "name": "increaseBalance",
      "outputs": [
        {
          "name": "",
          "type": "uint256"
        }
      ],
      "payable": true,
      "stateMutability": "payable",
      "type": "function"
    },
    {
      "constant": false,
      "inputs": [
        {
          "name": "profits",
          "type": "uint256"
        }
      ],
      "name": "payProfits",
      "outputs": [],
      "payable": true,
      "stateMutability": "payable",
      "type": "function"
    },
    {
      "constant": false,
      "inputs": [
        {
          "name": "donationAmmount",
          "type": "uint256"
        }
      ],
      "name": "calculateCoins",
      "outputs": [
        {
          "name": "",
          "type": "uint256"
        }
      ],
      "payable": false,
      "stateMutability": "nonpayable",
      "type": "function"
    }
  ],
  "bytecode": "0x6080604052600060065534801561001557600080fd5b5033600260006101000a81548173ffffffffffffffffffffffffffffffffffffffff021916908373ffffffffffffffffffffffffffffffffffffffff160217905550600060058190555060006003819055507ff62d91b00a83a9bc61c5470e34fd2d5c7c493759855fe316f8a806ef7029dbd060405180806020018281038252602a8152602001807f54686520436f6e747261637420686173206265656e206372656174656420537581526020017f636365737366756c6c790000000000000000000000000000000000000000000081525060400191505060405180910390a1610e59806101046000396000f3006080604052600436106100f0576000357c0100000000000000000000000000000000000000000000000000000000900463ffffffff168062ce8e3e1461016b5780630eed15b9146101d757806312065fe014610202578063209a14391461022d57806322fcefbe1461028b578063365b98b2146102b65780636f77926b146103235780636ffe4607146103815780638edeb15d146103ac578063a0990ae8146103d7578063b69ef8a8146103f7578063d003d23e14610422578063d2a5183314610440578063d544b20414610497578063e80beaa1146104d8578063e859b02014610505578063fb1669ca1461055c575b3480156100fc57600080fd5b506040517f08c379a00000000000000000000000000000000000000000000000000000000081526004018080602001828103825260058152602001807f4552524f5200000000000000000000000000000000000000000000000000000081525060200191505060405180910390fd5b34801561017757600080fd5b50610180610589565b6040518080602001828103825283818151815260200191508051906020019060200280838360005b838110156101c35780820151818401526020810190506101a8565b505050509050019250505060405180910390f35b3480156101e357600080fd5b506101ec610617565b6040518082815260200191505060405180910390f35b34801561020e57600080fd5b5061021761061d565b6040518082815260200191505060405180910390f35b34801561023957600080fd5b5061026e600480360381019080803573ffffffffffffffffffffffffffffffffffffffff169060200190929190505050610627565b604051808381526020018281526020019250505060405180910390f35b34801561029757600080fd5b506102a061064b565b6040518082815260200191505060405180910390f35b3480156102c257600080fd5b506102e160048036038101908080359060200190929190505050610651565b604051808273ffffffffffffffffffffffffffffffffffffffff1673ffffffffffffffffffffffffffffffffffffffff16815260200191505060405180910390f35b34801561032f57600080fd5b50610364600480360381019080803573ffffffffffffffffffffffffffffffffffffffff16906020019092919050505061068f565b604051808381526020018281526020019250505060405180910390f35b34801561038d57600080fd5b5061039661071f565b6040518082815260200191505060405180910390f35b3480156103b857600080fd5b506103c1610760565b6040518082815260200191505060405180910390f35b6103f560048036038101908080359060200190929190505050610766565b005b34801561040357600080fd5b5061040c610a01565b6040518082815260200191505060405180910390f35b61042a610a07565b6040518082815260200191505060405180910390f35b34801561044c57600080fd5b50610495600480360381019080803573ffffffffffffffffffffffffffffffffffffffff1690602001909291908035906020019092919080359060200190929190505050610ca7565b005b3480156104a357600080fd5b506104c260048036038101908080359060200190929190505050610d67565b6040518082815260200191505060405180910390f35b3480156104e457600080fd5b5061050360048036038101908080359060200190929190505050610def565b005b34801561051157600080fd5b5061051a610df9565b604051808273ffffffffffffffffffffffffffffffffffffffff1673ffffffffffffffffffffffffffffffffffffffff16815260200191505060405180910390f35b34801561056857600080fd5b5061058760048036038101908080359060200190929190505050610e23565b005b6060600180548060200260200160405190810160405280929190818152602001828054801561060d57602002820191906000526020600020905b8160009054906101000a900473ffffffffffffffffffffffffffffffffffffffff1673ffffffffffffffffffffffffffffffffffffffff16815260200190600101908083116105c3575b5050505050905090565b60035481565b6000600554905090565b60006020528060005260406000206000915090508060000154908060010154905082565b60065481565b60018181548110151561066057fe5b906000526020600020016000915054906101000a900473ffffffffffffffffffffffffffffffffffffffff1681565b6000806000808473ffffffffffffffffffffffffffffffffffffffff1673ffffffffffffffffffffffffffffffffffffffff168152602001908152602001600020600001546000808573ffffffffffffffffffffffffffffffffffffffff1673ffffffffffffffffffffffffffffffffffffffff1681526020019081526020016000206001015491509150915091565b6000600260009054906101000a900473ffffffffffffffffffffffffffffffffffffffff1673ffffffffffffffffffffffffffffffffffffffff1631905090565b60045481565b600080600260009054906101000a900473ffffffffffffffffffffffffffffffffffffffff1673ffffffffffffffffffffffffffffffffffffffff163373ffffffffffffffffffffffffffffffffffffffff16141515610854576040517f08c379a00000000000000000000000000000000000000000000000000000000081526004018080602001828103825260298152602001807f4f6e6c792074686520636f6d70616e792063616e20657865637574652074686981526020017f7320636f6d6d616e64000000000000000000000000000000000000000000000081525060400191505060405180910390fd5b6000831115156108cc576040517f08c379a000000000000000000000000000000000000000000000000000000000815260040180806020018281038252601d8152602001807f50726f66697473206d757374206265206c6172676572207468616e203000000081525060200191505060405180910390fd5b6003548310151515610946576040517f08c379a000000000000000000000000000000000000000000000000000000000815260040180806020018281038252601d8152602001807f50726f66697473206d757374206265206c6172676572207468616e203000000081525060200191505060405180910390fd5b600091506000905060035460045481151561095d57fe5b049150818381151561096b57fe5b0490507f2c61485c825f9026374a9705ec9ed4614470bd7cc30b19459d9e81b9d51e86126040518080602001828103825260378152602001807f5375636365737366756c6c79207472616e7366657265642070726f666974732081526020017f696e746f20637573746f6d657273206163636f756e747300000000000000000081525060400191505060405180910390a1505050565b60055481565b6000600260009054906101000a900473ffffffffffffffffffffffffffffffffffffffff1673ffffffffffffffffffffffffffffffffffffffff163373ffffffffffffffffffffffffffffffffffffffff1614151515610af5576040517f08c379a00000000000000000000000000000000000000000000000000000000081526004018080602001828103825260248152602001807f4f6e6c79207468652075736572732063616e20617474656d707420746f20646f81526020017f6e6174650000000000000000000000000000000000000000000000000000000081525060400191505060405180910390fd5b6003543410151515610b95576040517f08c379a000000000000000000000000000000000000000000000000000000000815260040180806020018281038252602b8152602001807f446f6e6174696f6e206d757374206265206c6172676572207468616e206d696e81526020017f696d756d616d6d6f756e7400000000000000000000000000000000000000000081525060400191505060405180910390fd5b34600481905550600454600560008282540192505081905550610bb9600454610d67565b600681905550610bce33600654600454610ca7565b600260009054906101000a900473ffffffffffffffffffffffffffffffffffffffff1673ffffffffffffffffffffffffffffffffffffffff166108fc349081150290604051600060405180830381858888f19350505050158015610c36573d6000803e3d6000fd5b507ff4d15b3ac5182ae89b7c7d8b0ab27e274d6d9e17cff267e42bedb6d2e522b1ba60405180806020018281038252601e8152602001807f42616c616e636520696e63726561736564205375636365737366756c6c79000081525060200191505060405180910390a1600554905090565b60008060008573ffffffffffffffffffffffffffffffffffffffff1673ffffffffffffffffffffffffffffffffffffffff168152602001908152602001600020905082816000018190555081816001018190555060018490806001815401808255809150509060018203906000526020600020016000909192909190916101000a81548173ffffffffffffffffffffffffffffffffffffffff021916908373ffffffffffffffffffffffffffffffffffffffff1602179055505050505050565b600060035482811515610d7657fe5b046006819055507fbad24859060f7910b14fa8cc130530b1fe4000802bb4b2a01f100402206af4cd60405180806020018281038252601d8152602001807f5375636365737366756c6c792063616c63756c6174656420636f696e7300000081525060200191505060405180910390a16006549050919050565b8060038190555050565b6000600260009054906101000a900473ffffffffffffffffffffffffffffffffffffffff16905090565b80600581905550505600a165627a7a72305820a2702f342296cf9889655841e56618c1c8ff2b87f03811972bdc1a10a933c9c30029",
  "source": "pragma solidity ^0.4.24;\n\ncontract Crowdfunding\n{\n    struct useracc\n    {\n        uint coins;\n        uint donation;\n    }\n    \n    mapping(address => useracc) public useraccount;\n    address[] public users;\n    \n    address company;\n\n    // testing purposes\n    event logging(string log);\n    event loggingtst(uint num);\n    event loggingts(address add);\n    \n    event contractCreated(string created);\n    event balanceIncreased(string newBal);\n    event coinsCalculated(string coinCalc);\n    event profitsPaid(string paidProfits);\n    \n    uint public requiredAmmount;\n    uint public donation;\n    uint public balance;\n    uint public coins = 0;\n    \n    //for each required amount of money donated the users are given coins\n    constructor() public\n    {\n        company = msg.sender;\n        balance = 0;\n        requiredAmmount = 0;\n        emit contractCreated(\"The Contract has been created Successfully\");\n    }\n    \n    //setters and getters\n    \n    //setting required amount for users to donate\n    function setRequiredAmount(uint ramount) public\n    {\n        requiredAmmount = ramount;\n    }\n    \n    //setting user\n    function setUser(address _address, uint _coins, uint _donation) public \n    {\n        useracc storage user = useraccount[_address];\n        \n        user.coins = _coins;\n        user.donation = _donation;\n        \n        users.push(_address);\n    }\n    \n    //get all users\n    function getUsers() view public returns(address[])\n    {\n        return users;\n    }\n    \n    //get a particular user \n    function getUser(address _address) view public returns (uint, uint)\n    {\n        return (useraccount[_address].coins, useraccount[_address].donation);\n    }\n    \n    //returns balace \n    function getBalance() view public returns(uint)\n    {\n        return balance;\n    }\n\n    function setBalance(uint _balance) public\n    {\n        balance = _balance;\n    }\n    \n    //returns company account balance in wei\n    function getCmpBal() view public returns(uint256)\n    {\n        return company.balance;\n    }\n    \n//--test--\\\\\n    function getCmpAddress() view public returns(address)\n    {\n        return company;\n    }\n\n    //main functionality  \n    function increaseBalance() public payable returns (uint)\n    {\n        //validation\n        require(msg.sender != company, \"Only the users can attempt to donate\");\n        require(msg.value >= requiredAmmount, \"Donation must be larger than minimumammount\");\n        \n        //setting donation amount and increasing balance\n        donation = msg.value;\n        balance += donation;\n        \n        //calculating coins for the user \n        coins = calculateCoins(donation);\n\n        //save the user details\n        setUser(msg.sender, coins, donation);\n        \n        //transferring money to company address\n        company.transfer(msg.value);\n        emit balanceIncreased(\"Balance increased Successfully\");\n        return balance;\n    }\n    \n    function payProfits(uint profits) public payable \n    {\n        require (msg.sender == company, \"Only the company can execute this command\");\n        require(profits > 0, \"Profits must be larger than 0\");\n        require(profits >= requiredAmmount, \"Profits must be larger than 0\");\n\n        uint C = 0;\n        uint _ppcoin = 0;\n\n        //determining the coin pool\n        C = donation / requiredAmmount; \n        \n        //calculate pay per coin\n        _ppcoin = (profits / C);\n                \n        //looping through the users u pay depending on how much coins they have\n     //   for(uint j =0; j <= users.length; j++) \n       // {\n         //   users[j].transfer(useraccount[users[j]].coins * _ppcoin);\n        //}\n        \n        emit profitsPaid(\"Successfully transfered profits into customers accounts\");\n    }\n\n    function calculateCoins(uint donationAmmount) public returns (uint)\n    {\n        coins = donationAmmount / requiredAmmount;  \n        \n        emit coinsCalculated(\"Successfully calculated coins\");\n        return coins;\n    }\n\n    \n    // default function\n    // when you try to call a function that does not exist or call a method with invalid parameters, this is called\n    function() public {\n        revert(\"ERROR\");\n    }\n}",
  "sourcePath": "C:\\Users\\GEORGE MALLIA\\Desktop\\Crowdfunding\\contracts\\Crowdfunding.sol",
  "compiler": {
    "name": "solc",
    "version": "0.4.24+commit.e67f0147.Emscripten.clang"
  },
  "schemaVersion": "2.0.1",
  "updatedAt": "2019-02-21T11:16:34.694Z"
}